{
  "contractName": "Naruto",
  "abi": [
    {
      "constant": true,
      "inputs": [],
      "name": "amount",
      "outputs": [
        {
          "internalType": "uint256",
          "name": "",
          "type": "uint256"
        }
      ],
      "payable": false,
      "stateMutability": "view",
      "type": "function"
    },
    {
      "constant": true,
      "inputs": [],
      "name": "decimals",
      "outputs": [
        {
          "internalType": "uint8",
          "name": "",
          "type": "uint8"
        }
      ],
      "payable": false,
      "stateMutability": "view",
      "type": "function"
    },
    {
      "constant": true,
      "inputs": [],
      "name": "name",
      "outputs": [
        {
          "internalType": "string",
          "name": "",
          "type": "string"
        }
      ],
      "payable": false,
      "stateMutability": "view",
      "type": "function"
    },
    {
      "constant": true,
      "inputs": [],
      "name": "symbol",
      "outputs": [
        {
          "internalType": "string",
          "name": "",
          "type": "string"
        }
      ],
      "payable": false,
      "stateMutability": "view",
      "type": "function"
    }
  ],
  "bytecode": "0x60806040526040518060400160405280600681526020017f4e617275746f00000000000000000000000000000000000000000000000000008152506000908051906020019061004f9291906100d4565b506040518060400160405280600281526020017f51420000000000000000000000000000000000000000000000000000000000008152506001908051906020019061009b9291906100d4565b50655af3107a40006002556009600360006101000a81548160ff021916908360ff1602179055503480156100ce57600080fd5b50610179565b828054600181600116156101000203166002900490600052602060002090601f016020900481019282601f1061011557805160ff1916838001178555610143565b82800160010185558215610143579182015b82811115610142578251825591602001919060010190610127565b5b5090506101509190610154565b5090565b61017691905b8082111561017257600081600090555060010161015a565b5090565b90565b610323806101886000396000f3fe608060405234801561001057600080fd5b506004361061004c5760003560e01c806306fdde0314610051578063313ce567146100d457806395d89b41146100f8578063aa8c217c1461017b575b600080fd5b610059610199565b6040518080602001828103825283818151815260200191508051906020019080838360005b8381101561009957808201518184015260208101905061007e565b50505050905090810190601f1680156100c65780820380516001836020036101000a031916815260200191505b509250505060405180910390f35b6100dc610237565b604051808260ff1660ff16815260200191505060405180910390f35b61010061024a565b6040518080602001828103825283818151815260200191508051906020019080838360005b83811015610140578082015181840152602081019050610125565b50505050905090810190601f16801561016d5780820380516001836020036101000a031916815260200191505b509250505060405180910390f35b6101836102e8565b6040518082815260200191505060405180910390f35b60008054600181600116156101000203166002900480601f01602080910402602001604051908101604052809291908181526020018280546001816001161561010002031660029004801561022f5780601f106102045761010080835404028352916020019161022f565b820191906000526020600020905b81548152906001019060200180831161021257829003601f168201915b505050505081565b600360009054906101000a900460ff1681565b60018054600181600116156101000203166002900480601f0160208091040260200160405190810160405280929190818152602001828054600181600116156101000203166002900480156102e05780601f106102b5576101008083540402835291602001916102e0565b820191906000526020600020905b8154815290600101906020018083116102c357829003601f168201915b505050505081565b6002548156fea265627a7a72315820b41b8369e586c13f047407dc6b7e5bf0df08a1aaabf0aa677d078f9681b5e70364736f6c63430005110032",
  "source": "// SPDX-License-Identifier: MIT\npragma solidity >=0.5.0;\n\ncontract Naruto{\n    string public name = 'Naruto';\n    string public symbol = 'QB';\n    uint256 public amount = 100000000000000;\n    uint8 public decimals = 9;\n    \n}",
  "sourcePath": "/Users/abhinavkhanna/defi-staking-app-starter/defi-staking-app/src/contracts/naruto.sol",
  "compiler": {
    "name": "solc",
    "version": "0.5.17+commit.d19bba13.Emscripten.clang"
  },
  "schemaVersion": "3.4.9",
  "updatedAt": "2022-09-14T09:54:23.535Z",
  "devdoc": {
    "methods": {}
  },
  "userdoc": {
    "methods": {}
  }
}